:1000000075C30000A4C30000A2C30000A0C3000089
:100010009EC300009CC300009AC3000098C3000068
:1000200096C3000094C3000092C3000090C3000078
:100030008EC300008CC300008AC3000088C3000088
:1000400086C3000084C3000082C3000080C3000098
:100050000C948A0C7CC300007AC300000C94400C02
:1000600076C300000C940A0C0C94E10B70C30000E2
:100070006EC300006CC300006AC3000068C30000C8
:1000800066C3000064C3000062C3000060C30000D8
:100090005EC300005CC300005AC3000058C30000E8
:1000A00056C3000054C3000052C3000050C30000F8
:1000B0004EC300004CC300004AC3000048C3000008
:1000C00046C3000044C3000042C3000040C3000018
:1000D0003EC300003CC300003AC3000038C3000028
:1000E00036C3000000000000003E5B4F5B3E3E6BED
:1000F0004F6B3E1C3E7C3E1C183C7E3C181C577DC2
:10010000571C1C5E7F5E1C00183C1800FFE7C3E70D
:10011000FF0018241800FFE7DBE7FF30483A060E1F
:100120002629792926407F050507407F05253F5A66
:100130003CE73C5A7F3E1C1C08081C1C3E7F1422D6
:100140007F22145F5F005F5F06097F017F00668981
:10015000956A606060606094A2FFA29408047E04C7
:100160000810207E201008082A1C08081C2A0808ED
:100170001E101010100C1E0C1E0C30383E383006AD
:100180000E3E0E06000000000000005F00000007A9
:10019000000700147F147F14242A7F2A12231308D7
:1001A000646236495620500008070300001C2241B3
:1001B000000041221C002A1C7F1C2A08083E080857
:1001C0000080703000080808080800006060002007
:1001D000100804023E5149453E00427F40007249EA
:1001E0004949462141494D331814127F102745458E
:1001F00045393C4A494931412111090736494949A4
:1002000036464949291E0000140000004034000011
:10021000000814224114141414140041221408027A
:10022000015909063E415D594E7C1211127C7F49ED
:100230004949363E414141227F4141413E7F494942
:1002400049417F090909013E414151737F0808086E
:100250007F00417F41002040413F017F081422413F
:100260007F404040407F021C027F7F0408107F3E99
:100270004141413E7F090909063E4151215E7F0906
:10028000192946264949493203017F01033F40406D
:10029000403F1F2040201F3F4038403F6314081458
:1002A0006303047804036159494D43007F41414190
:1002B0000204081020004141417F04020102044071
:1002C00040404040000307080020545478407F28F5
:1002D0004444383844444428384444287F385454EB
:1002E000541800087E090218A4A49C787F0804040E
:1002F0007800447D40002040403D007F10284400AD
:1003000000417F40007C047804787C08040478383D
:1003100044444438FC1824241818242418FC7C086D
:10032000040408485454542404043F44243C4040EA
:10033000207C1C2040201C3C4030403C442810289D
:10034000444C9090907C4464544C440008364100E6
:100350000000770000004136080002010204023C60
:100360002623263C1EA1A161123A4040207A38542F
:1003700054555921555579412254547842215554A8
:10038000784020545579400C1E52721239555555FB
:1003900059395454545939555454580000457C41E6
:1003A0000002457D420001457C407D1211127DF026
:1003B000282528F07C545545002054547C547C0A50
:1003C000097F4932494949323A4444443A324A4819
:1003D00048303A4141217A3A42402078009DA0A01D
:1003E0007D3D4242423D3D4040403D3C24FF24246F
:1003F000487E4943662B2FFC2F2BFF0929F620C08E
:10040000887E090320545479410000447D413048DE
:10041000484A32384040227A007A0A0A727D0D1921
:10042000317D2629292F28262929292630484D4083
:1004300020380808080808080808382F10C8ACBA7F
:100440002F102834FA00007B000008142A142222FE
:10045000142A14085500550055AA55AA55AAFF5547
:10046000FF55FF000000FF00101010FF00141414CF
:10047000FF001010FF00FF1010F010F0141414FC17
:10048000001414F700FF0000FF00FF1414F404FC34
:10049000141417101F10101F101F1414141F001015
:1004A0001010F0000000001F101010101F1010108E
:1004B00010F010000000FF1010101010101010109D
:1004C000FF10000000FF140000FF00FF00001F10DD
:1004D000170000FC04F414141710171414F404F497
:1004E0000000FF00F714141414141414F700F71488
:1004F0001414171410101F101F141414F4141010D7
:10050000F010F000001F101F0000001F140000007A
:10051000FC140000F010F01010FF10FF141414FF72
:10052000141010101F00000000F010FFFFFFFFFF6D
:10053000F0F0F0F0F0FFFFFF0000000000FFFF0F01
:100540000F0F0F0F3844443844FC4A4A4A347E02A5
:10055000020606027E027E02635549416338444426
:100560003C04407E201E2006027E020299A5E7A5DB
:10057000991C2A492A1C4C7201724C304A4D4D304C
:100580003048784830BC625A463D3E494949007E71
:100590000101017E2A2A2A2A2A44445F4444405108
:1005A0004A444040444A51400000FF0103E080FFBC
:1005B000000008086B6B083612362436060F090F48
:1005C00006000018180000001010003040FF010164
:1005D000001F01011E00191D1712003C3C3C3C008D
:1005E0000000000000000A0B02090C0D0E080703B2
:1005F00004010000000000000000000000000000F6
:1006000000000000000000000000000000000000EA
:1006100012111000000000000000000000000000A7
:100620000000000000000000000000002100240085
:1006300027002A002D0030003300010100000401D2
:1006400007010A0101021020200808102040102094
:100650004080020102010804020101020408102086
:100660004080804020100804020180040201804084
:1006700020100804020108040201010204081020ED
:100680004080010204081020408000002200250064
:1006900028002B002E00310034000201000005016B
:1006A00008010B01050505050705080808080202F1
:1006B00002020A0A080804040404010101010101FC
:1006C00001010303030303030303040707070C0CDF
:1006D0000C0C0C0C0C0C02020202060606060606A6
:1006E00006060B0B0B0B0B0B0B0BE10E11241FBEA5
:1006F000CFEFD1E2DEBFCDBF00E00CBF12E0A0E043
:10070000B2E0EEEEF5E200E00BBF02C007900D9202
:10071000A434B107D9F72BE0A4E4B2E001C01D92E4
:10072000A033B207E1F713E0C6E7D3E000E006C06C
:1007300021970109802FFE010E94BD11C537D10705
:1007400080E00807A9F70E9412100C94F51258CC0B
:1007500090E0FC01EC5BF94F24918C55994FFC0122
:100760008491882399F090E0880F991FFC01E65D41
:10077000F94FA591B491FC01E657F94F85919491F9
:100780008FB7F894EC91E22BEC938FBF0895FC01A6
:10079000538D448D252F30E0842F90E0821B930BE6
:1007A000541710F0CF96089501970895FC01918D8C
:1007B000828D981761F0A28DAE0FBF2FB11D5D968F
:1007C0008C91928D9F5F9F73928F90E008958FEF31
:1007D0009FEF0895FC01918D828D981731F0828DE5
:1007E000E80FF11D858D90E008958FEF9FEF08953C
:1007F000FC01918D228D892F90E0805C9F4F821BA0
:1008000091098F7399270895FC01A48DA80FB92F22
:10081000B11DA35ABF4F2C91848D90E001968F7328
:100820009927848FA689B7892C93A089B1898C9147
:10083000837080648C93938D848D981306C0028896
:10084000F389E02D80818F7D80830895EF92FF9260
:100850000F931F93CF93DF93EC0181E0888F9B8DE3
:100860008C8D98131AC0E889F989808185FF15C09D
:100870009FB7F894EE89FF896083E889F9898081C0
:100880008370806480839FBF81E090E0DF91CF918F
:100890001F910F91FF90EF900895F62E0B8D10E0B1
:1008A0000F5F1F4F0F731127E02E8C8D8E110BC021
:1008B0000FB607FCFACFE889F989808185FFF5CF6B
:1008C000CE01A2DFF2CFEB8DEC0FFD2FF11DE35A2D
:1008D000FF4FF0829FB7F8940B8FEA89FB898081E4
:1008E0008062D0CFCF93DF93EC01888D8823B1F065
:1008F000AA89BB89E889F9898C9185FD03C080812B
:1009000086FD0CC00FB607FCF7CF8C9185FFF2CFA8
:10091000808185FFEDCFCE0177DFEACFDF91CF91E8
:1009200008958FE49AE064DF21E0892B09F420E048
:10093000822F089580E090E0892B21F0F2DF811171
:100940000E94000080E090E0892B49F080E090E078
:10095000892B29F00E94000081110E94000080E094
:1009600090E0892B49F080E090E0892B29F00E94EB
:10097000000081110E94000080E090E0892B49F086
:1009800080E090E0892B29F00E94000081110C94F6
:1009900000000895AF92BF92CF92DF92EF92FF9244
:1009A0000F931F93CF93DF936C017B018B01040F97
:1009B000151FEB015E01AE18BF08C017D10759F033
:1009C0006991D601ED91FC910190F081E02DC60175
:1009D0001995892B79F7C501DF91CF911F910F915F
:1009E000FF90EF90DF90CF90BF90AF900895089563
:1009F000FC016370668B848195812681378161302B
:100A000039F0633029F091878087338722870895F2
:100A1000318720879387828708952F923F924F9244
:100A20005F926F927F928F929F92AF92BF92CF927E
:100A3000DF92EF92FF920F931F93CF93DF93CDB787
:100A4000DEB76A970FB6F894DEBF0FBECDBF9A8FA0
:100A5000898F7A8369834A01D22E18870F833701E1
:100A6000BC2CDC0159962D913C915A9721153105EA
:100A700009F015C118968D919C91199768177907FF
:100A80000CF0D7C11A968D919C91481759070CF01C
:100A9000D0C14C2C512CB6E0CB9E600D711D1124A1
:100AA0007C876B87161617060CF0C3C1EA2DF0E0A1
:100AB000FA87E98793E0EE0FFF1F9A95E1F7F88B2D
:100AC000EF87CF01840F951F181619060CF0B1C1DE
:100AD000A98DBA8D58968C91811104C0BFEABD15BD
:100AE00008F4D394A98DBA8DED91FC9111970284ED
:100AF000F385E02DCD011995B5E0DB9EC0011124F1
:100B0000E981FA81FC83EB83312C212C9C012C514F
:100B10003F4F388F2F8B4A2D50E05E8B4D8BEF89E6
:100B2000F88DE20DF31D44919E828D82D12CC12C53
:100B300069817A81620D731D7A8B698B842F90E0B5
:100B40009C8B8B8BE98DFA8DA081B18140FF82C097
:100B5000F1E0BF126FC0AF126DC01C96ED91FC9119
:100B60002F813885A4014C0D5D1D69897A89898D95
:100B70009A8D1995EB89FC89F595E7954E2F5FEFD6
:100B8000C51AD50A6D817E818D899E89680F791F6E
:100B90007E836D8398E0C916D10481F6AFEF2A1ADF
:100BA0003A0AEB81FC81E40DF51DFC83EB83F5E053
:100BB0002F16310409F0B3CF2F813885261537055C
:100BC000B9F0A98DBA8DED91FC91B1E0BB1257C07F
:100BD000AB1255C069817A816B5F7F4F0088F189C4
:100BE000E02D830128E030E0A401898D9A8D1995CC
:100BF000A98DBA8DED91FC9111970688F789E02DAA
:100C0000CD016A960FB6F894DEBF0FBECDBFDF915F
:100C1000CF911F910F91FF90EF90DF90CF90BF90F9
:100C2000AF909F908F907F906F905F904F903F908C
:100C30002F9019941E96ED91FC91EF80F884098510
:100C40001A8592014D815E816B817C81898D9A8D9F
:100C5000199590CF2F8138852615370509F48ACF4D
:100C600031E0B31207C0A31205C01C96ED91FC91B0
:100C7000930178CF1E96ED91FC917301E0CF6B85C7
:100C80007C85641975090684F785E02D73010F854D
:100C900018899201A401898D9A8D1995A9CFF9011E
:100CA00034969491329745915491D91AB7E0DB9ECE
:100CB000400D511D1124F901259134913C8B2B8B52
:100CC000FA0125903490FA0132967490319634915D
:100CD000398B329664903196449041E04C1518F06F
:100CE0004A1508F07FC0662D062C000C770B7C831C
:100CF0006B83842D042C000C990B9E838D83A98D0E
:100D0000BA8DED91FC9111970284F385E02DCD0110
:100D10001995512CD12CC12CEA2DF0E0FA87E987E6
:100D20002B2D30E03C872B87A401440D511D47FC3F
:100D30005A95588F4F8B69817A81660D711D67FCBA
:100D40007A957E876D877989C71608F051CF2C2D4B
:100D500030E04D815E81420F531FA985BA854A9FBD
:100D6000C0014B9F900D5A9F900D1124FC01E80D7E
:100D7000F91DF88BEF87852D612C4F89588D420F17
:100D8000531F5E8B4D8B671408F050C0442443946E
:100D9000480E877041F4C1010196EB89FC89E20D90
:100DA000F31DD4901C01D7FE19C0A98DBA8DED9109
:100DB000FC91662D70E0B1E0BB1219C0AB1217C0F8
:100DC0002D853E85620F731F0484F585E02D2F81EC
:100DD00038854D895E89898D9A8D1995DD0C6394CE
:100DE000842DD1CF1E821D821C821B8288CF4B8115
:100DF0005C81640F751FAB85BC856A9FC0016B9FCA
:100E0000900D7A9F900D112469817A81680F791F66
:100E10000684F785E02DEF80F88409851A859D0109
:100E20004F855889898D9A8D1995D8CF570CC394C1
:100E30008ACF6A960FB6F894DEBF0FBECDBFDF91A2
:100E4000CF911F910F91FF90EF90DF90CF90BF90C7
:100E5000AF909F908F907F906F905F904F903F905A
:100E60002F9008958F929F92AF92CF92EF92FF9220
:100E70000F931F93CF93DF93EC01262F898D9A8DCB
:100E8000009709F050C06A30D1F41D861C868D8908
:100E900048E0849F900111248E859F85820F931FC7
:100EA0009F878E8781E090E0DF91CF911F910F9116
:100EB000FF90EF90CF90AF909F908F9008956D30FE
:100EC00089F3CC88AD888F898823C1F08C859D8576
:100ED00036E0C39E800D911D112448855985481721
:100EE000590764F44E855F851D861C8638E0A39EF5
:100EF000C0011124840F951F9F878E87EA88FB8885
:100F0000088919894E855F856C857D85CE0185DDD3
:100F10002C898C859D8546E0249F800D911D112490
:100F20009D878C87BFCF6A3069F41D861C86FC01C3
:100F30003696E4912D898E859F85E29F800D911DC7
:100F40001124AECF6D3009F4ADCFFC01349634914D
:100F5000631708F4A7CF3196E491E61708F4A2CFFF
:100F6000FC01329685909490462F431B342F47E026
:100F7000349F800C911C1124F401329634913196E7
:100F8000E4913323A1F1EE2391F1CC88F40135965D
:100F9000E491AD884F89442301F10E2E000CFF0B24
:100FA000E30FF11DCE9EA001CF9E500D11246C8544
:100FB0007D85460F571F68857985641775076CF422
:100FC0004E855F851D861C86FC013696E491AE9E9B
:100FD000400D511D11245F874E87EA88FB880889E0
:100FE00019894E855F856C857D85CE0116DDF401FE
:100FF0003496E4912C898C859D85E29F800D911D0E
:1010000011248ECF6F927F928F929F92AF92BF9258
:10101000CF92DF92EF92FF920F931F93CF93DF93C4
:10102000EC016B015A0139014801E881F981028420
:10103000F385E02D1995E881F9810288F389E02D87
:1010400087019301A501B601CE011995A501480DAF
:10105000591D41505109E881F9810288F389E02D39
:101060009301B601CE011995E881F9810088F189D3
:10107000E02D9401A501B601CE011995C60CD71C2F
:10108000B60161507109E881F9810088F189E02D8C
:101090009401A501CE011995E881F9810688F789A7
:1010A000E02DCE01DF91CF911F910F91FF90EF9036
:1010B000DF90CF90BF90AF909F908F907F906F9078
:1010C00019946F927F928F929F92AF92BF92CF921C
:1010D000DF92EF92FF920F931F93CF93DF935C0108
:1010E000EB016A01490138018701DC01ED91FC91B6
:1010F0006217730719F5641675062CF0962D872D67
:101100003A01C92ED82E9601261937092F5F3F4F75
:10111000048CF58DE02DA301BE01C5011995DF9169
:10112000CF911F910F91FF90EF90DF90CF90BF90E4
:10113000AF909F908F907F906F90089546155705C0
:1011400091F42617370724F0892D4B01C22FD82F91
:101150009E01281939092F5F3F4F068CF78DE02D2E
:10116000A601B401DACF0284F385E02D1995D501EB
:10117000ED91FC910488F589E02D83019401A6018D
:10118000BE01C5011995D501ED91FC910688F7893D
:10119000E02DC501DF91CF911F910F91FF90EF904E
:1011A000DF90CF90BF90AF909F908F907F906F9087
:1011B0001994EF92FF920F931F93DC011A960D91F1
:1011C0001C911B9718962D913C911997ED91FC91CC
:1011D00000A0F1A1E02D7B0150E040E070E060E074
:1011E00019951F910F91FF90EF9008954F925F9284
:1011F0006F927F928F929F92AF92BF92CF92DF9227
:10120000EF92FF920F931F93CF93DF936C012B010B
:101210005A0139014801DC01ED91FC910284F3850A
:10122000E02D1995E201640C751CD601ED91FC913D
:10123000C615D7055CF40088F189E02D870194017B
:10124000A501BE01C60119952196EFCF0688F78941
:10125000E02DC601DF91CF911F910F91FF90EF908C
:10126000DF90CF90BF90AF909F908F907F906F90C6
:101270005F904F9019948F929F92AF92BF92CF92AE
:10128000DF92EF92FF920F931F93CF93DF93EC01C6
:101290005B014A016901E881F9810284F385E02D4F
:1012A000199595012C0D3D1D21503109E881F981D9
:1012B0000488F589E02D78018401A401B501CE01EF
:1012C0001995E881F9810688F789E02DCE01DF9133
:1012D000CF911F910F91FF90EF90DF90CF90BF9033
:1012E000AF909F908F9019948F929F92AF92BF92E0
:1012F000CF92DF92EF92FF920F931F93CF93DF93E2
:10130000EC015B014A0169017801E881F9810284FD
:10131000F385E02D1995C80CD91C860101501109DF
:10132000E881F9810488F589E02D9501A401B501D2
:10133000CE011995E881F9810688F789E02DCE0163
:10134000DF91CF911F910F91FF90EF90DF90CF90A1
:10135000BF90AF909F908F9019940895EF92FF9255
:101360000F931F93DC01ED91FC9100A0F1A1E02D02
:1013700019951F910F91FF90EF9008950F931F9370
:10138000DC01ED91FC91068CF78DE02D19951F91F4
:101390000F9108950F931F93DC01ED91FC91048C44
:1013A000F58DE02D19951F910F910895DC01ED91B8
:1013B000FC910084F185E02D19942F923F924F9279
:1013C0005F926F927F928F929F92AF92BF92CF92D5
:1013D000DF92EF92FF920F931F93CF93DF9300D092
:1013E00000D0CDB7DEB73C016A013E832D83FC827D
:1013F000EB825801A41AB50AB7FE03C0B194A194B8
:10140000B1088D809E80861A970A97FE03C091943A
:10141000819491088A149B045CF0902F812F0D8198
:101420001E819D838E839C2D8D2D6B01692F782FBE
:101430000C151D055CF09D818E817E836D83692F67
:10144000782F902F812F8601C92ED82E1601201AB1
:10145000310A2B012D813E81421A530A57FE03C0E7
:10146000519441945108710137FE03C03FEFE31AD4
:10147000F30AF594E7948D819E81861797075CF5B2
:10148000A1E0B0E0BA83A983C016D1064CF1D30124
:10149000ED91FC910484F585E02D2B813C81A80120
:1014A0006D817E818A149B041CF04D815E81B801A0
:1014B000C3011995E418F508F7FE0AC02D813E8195
:1014C00089819A81280F391F3E832D83E20CF31CFA
:1014D0000F5F1F4FD9CF2FEF3FEF3A832983D4CF30
:1014E00026960FB6F894DEBF0FBECDBFDF91CF9129
:1014F0001F910F91FF90EF90DF90CF90BF90AF9032
:101500009F908F907F906F905F904F903F902F9023
:101510000895DF92EF92FF920F931F93CF93DF9383
:10152000DC0177FDB0C018968D919C9119976817D2
:1015300079070CF0A8C057FDA6C01A968D919C9112
:101540001B97481759070CF09EC014968D919C91DB
:1015500015975696EC915697E23009F49CC0E3300B
:1015600009F4A9C0E13031F4FC013197E41BF50B1B
:10157000AB01BF018901012F112702950F70F02ED9
:10158000E901CC0FCD2FCC1FDD0BD195EC2FEF70E7
:10159000EE2E36952795E22FEF70DE2E5F96EC91BA
:1015A0005F97F0E0017011273C2F31702170909609
:1015B000CC919097D0E0CC0FDD1FCA0FDB1F4E17E8
:1015C0005F070CF086C0489FF001499FF00D589FBF
:1015D000F00D1124AF01440F551FE40FF51F6E0FDE
:1015E0007F1FEB8DFC8DE60FF71F880F991FEF0112
:1015F000C80FD91F88818C7F8883012B59F01496DE
:10160000CD91DC911597CC0FDD1FCE0FDF1F8881A8
:1016100081608883332359F01496CD91DC9115971E
:10162000CC0FDD1FCE0FDF1F888182608883149668
:10163000CD91DC911597CE0FDF1F8881222309F40D
:1016400044C08160888323E030E092E08081837E23
:101650004F2D492309F03BC080838E2D892319F03B
:101660008081886080838D2D892319F0808180613D
:10167000808314964D915C911597E40FF51F990F97
:101680002150310919F7DF91CF911F910F91FF90F0
:10169000EF90DF900895FC013197EF01C61BD70B47
:1016A000BE011696ED91FC9117973197EF01C41B7F
:1016B000D50BAE015FCF1696ED91FC911797319740
:1016C000E61BF70BBA01AF0155CF8E7FBBCF84600D
:1016D000C3CF4E1B5F0B489FF001499FF00D589FF1
:1016E000F00D1124CF01880F991FE80FF91F6E0F1D
:1016F0007F1FEB8DFC8DE60FF71F80818C7F808331
:101700001496CD91DC911597CE0FDF1F8881012BA8
:1017100061F182608883332319F080818160808346
:10172000222319F080818260808323E030E092E000
:1017300080818F714F2D4923D1F480838E2D892391
:1017400019F08081806480838D2D892319F0808138
:101750008068808314964D915C911597E40FF51F76
:10176000990F2150310921F78ECF8D7FD3CF806221
:10177000E4CF089590E080E008959B012150310965
:101780002E3F3F4FE0F0DC019096EC9190975F96F2
:10179000FC915F9714964D915C91F49F9001F59F99
:1017A000300D1124A901440F551F420F531FF0E0C3
:1017B000EE0FFF1FE80FF91F838D948D0FC7F9CC33
:1017C00009D71F920F920FB60F9211240BB60F92EA
:1017D0002F933F934F935F936F937F938F939F9339
:1017E000AF93BF93EF93FF938FE49AE00DD8FF91EF
:1017F000EF91BF91AF919F918F917F916F915F9189
:101800004F913F912F910F900BBE0F900FBE0F90F5
:101810001F9018951F920F920FB60F9211240BB6BE
:101820000F922F938F939F93EF93FF93E0915F0A13
:10183000F091600A8081E091650AF091660A82FD6C
:101840001DC090818091680A8F5F8F732091690A13
:10185000821741F0E091680AF0E0E15BF54F958F67
:101860008093680AFF91EF919F918F912F910F9034
:101870000BBE0F900FBE0F901F9018958081F2CF76
:101880001F920F920FB60F9211242F933F938F93B5
:101890009F93AF93BF938091490290914A02A09188
:1018A0004B02B0914C023091480223E0230F2D37B8
:1018B00058F50196A11DB11D20934802809349025D
:1018C00090934A02A0934B02B0934C028091440241
:1018D00090914502A0914602B09147020196A11D48
:1018E000B11D8093440290934502A0934602B093A9
:1018F0004702BF91AF919F918F913F912F910F9090
:101900000FBE0F901F90189526E8230F0296A11D79
:10191000B11DD2CF1F920F920FB60F9211240BB6AA
:101920000F921F932F933F934F935F936F937F93E8
:101930008F939F93AF93BF93CF93DF93EF93FF93D7
:10194000A0914D02B0914E02D296ED91FC91D397A9
:1019500080819B969C919B97892B8083D096ED915B
:10196000FC91D19780819A969C919A97892B80833C
:101970005F963C915F9788EC90E0393010F480E9F5
:1019800091E0DD962C91DD9788589F4F02C0880F1B
:10199000991F2A95E2F7CC97DD962C91DD972F5F62
:1019A000DD962C93DD97243008F481C1DD961C92DE
:1019B000DD97DC962C91DC972F5FDC962C93DC97DF
:1019C000231720F1DC961C92DC9791962C9191972D
:1019D000222359F090963C91909721E0231B9096FA
:1019E0002C93909791961C92919790962C9190970A
:1019F000E1E0F0E0E21BF109EE0FFF1FEA0FFB1F31
:101A0000238D348DDF963C932E93DE97DE96ED91F9
:101A1000FC91DF9790938700809386001092850059
:101A200010928400D296CD91DC91D39798819B96A9
:101A30008C919B97809589238883D096CD91DC915A
:101A4000D19798819A968C919A97809589238883CB
:101A500095B199968C919997892BDD962C91DD976C
:101A6000222309F47DC1019002B885B995B901908E
:101A700002B885B995B9019002B885B995B90190B8
:101A800002B885B995B9019002B885B995B90190A8
:101A900002B885B995B9019002B885B995B9019098
:101AA00002B885B995B9019002B885B995B9019088
:101AB00002B885B995B9019002B885B995B9019078
:101AC00002B885B995B9019002B885B995B9019068
:101AD00002B885B995B9019002B885B995B9019058
:101AE00002B885B995B9019002B885B995B9019048
:101AF00002B885B995B9019002B885B995B9019038
:101B000002B885B995B9019002B885B995B9019027
:101B100002B885B995B9019002B885B995B9019017
:101B200002B885B995B9019002B885B995B9019007
:101B300002B885B995B9019002B885B995B90190F7
:101B400002B885B995B9019002B885B995B90190E7
:101B500002B885B995B9019002B885B995B90190D7
:101B600002B885B995B914962D913C9115972034FA
:101B7000310509F080C0019002B885B995B901908E
:101B800002B885B995B9019002B885B995B90190A7
:101B900002B885B995B9019002B885B995B9019097
:101BA00002B885B995B9019002B885B995B9019087
:101BB00002B885B995B9019002B885B995B9019077
:101BC00002B885B995B9019002B885B995B9019067
:101BD00002B885B995B9019002B885B995B9019057
:101BE00002B885B995B9019002B885B995B9019047
:101BF00002B885B995B9019002B885B995B9019037
:101C000002B885B995B9019002B885B995B9019026
:101C100002B885B995B9019002B885B995B9019016
:101C200002B885B995B9019002B885B995B9019006
:101C300002B885B995B9019002B885B995B90190F6
:101C400002B885B995B9019002B885B995B90190E6
:101C500002B885B995B9019002B885B995B90190D6
:101C600002B885B995B9019002B885B995B90190C6
:101C700002B885B995B9DF96FC93EE93DE9786B3EB
:101C800086BBFF91EF91DF91CF91BF91AF919F9173
:101C90008F917F916F915F914F913F912F911F9104
:101CA0000F900BBE0F900FBE0F901F901895DD96F2
:101CB0002C91DD97213009F0A9CEDC963C91DC9780
:101CC000D496ED91FC91D5979C962C919C9730FFE2
:101CD00037C03081232B2083DC963C91DC97D6964D
:101CE000ED91FC91D7979D962C919D9731FF2CC03B
:101CF0003081232B2083DC963C91DC97D896ED91A4
:101D0000FC91D9979E962C919E9732FF21C03081ED
:101D1000232B20835F962C915F97293008F476CE91
:101D2000DC963C91DC97DA96ED91FC91DB979F96DF
:101D30002C919F9733FF10C03081232B208366CED8
:101D4000308120952323C7CF308120952323D2CF04
:101D5000308120952323DDCF308120952323EECFC2
:101D600010E0412F50E014962D913C9115974217A9
:101D700053070CF084CFBA01620F731F2E0F3F1F61
:101D8000E901C60FD71F2881C4E02C9F90011124C0
:101D90002C706E0F7F1FEB016881D0E16D9FB00149
:101DA00011246073262B4E0F5F1FEA014881D0E497
:101DB0004D9FA0011124242B22B985B995B91F5F2D
:101DC000D0CF1092520A1092510A88EE93E0A0E010
:101DD000B0E08093530A9093540AA093550AB093AD
:101DE000560A8AE092E09093500A80934F0A85EC5D
:101DF00090E090935C0A80935B0A84EC90E090936F
:101E00005E0A80935D0A80EC90E09093600A809374
:101E10005F0A81EC90E09093620A8093610A82EC01
:101E200090E09093640A8093630A86EC90E090932C
:101E3000660A8093650A1092680A1092690A1092E5
:101E40006A0A10926B0A1092EF0A1092EE0A20E4CE
:101E500030E03093F10A2093F00A80E290E0909312
:101E6000F30A8093F20A3093F50A2093F40A9093D0
:101E7000F70A8093F60A1092020B1092F90A109258
:101E8000F80A1092FB0A1092FA0A81E08093010B83
:101E90008093000B2FEF3FEF3093FF0A2093FE0A51
:101EA0003093FD0A2093FC0A8093030B1092040BDD
:101EB0001092060B1092050B8CE192E09093ED0AC4
:101EC0008093EC0A80E180930B0B80E09CE05DD274
:101ED0009093080B8093070B009709F48CC020E0C7
:101EE0003CE0FC01A901119241505040E1F7909370
:101EF0000A0B8093090B86E38093110B87E3809391
:101F0000120B88E38093130B8BE080930E0B8AE017
:101F100080930F0B89E08093100BEFE4F6E0E491DF
:101F2000E093150BEEEAF6E0E491F0E0EE0FFF1F10
:101F3000E657F94F8591949190931D0B80931C0B5C
:101F4000EEE4F6E0E491E093160BEDEAF6E0E491BE
:101F5000F0E0EE0FFF1FE657F94F859194919093B3
:101F60001F0B80931E0BEDE4F6E0E491E093170B5A
:101F7000EAEDF6E0E491F0E0EE0FFF1FE657F94FCF
:101F8000859194919093210B8093200BEAE7F6E0E2
:101F9000E491E093180BEBEDF6E0E491F0E0EE0F46
:101FA000FF1FE657F94F859194919093230B8093EF
:101FB000220BEBE7F6E0E491E093190BECEDF6E091
:101FC000E491F0E0EE0FFF1FE657F94F85919491F1
:101FD0009093250B8093240BECE7F6E0E491E093DB
:101FE0001A0B83E08093290B8FE08093280B1092CB
:101FF0000D0B10920C0B89E38093140BEDEDF6E0C2
:10200000E491F0E0EE0FFF1FE657F94F85919491B0
:102010009093270B8093260BEDE7F6E0E491E09395
:102020001B0B0895789484B5826084BD84B581606B
:1020300084BD85B5826085BD85B5816085BD809193
:102040006E00816080936E0010928100809181000B
:102050008260809381008091810081608093810003
:10206000809180008160809380008091B1008460C5
:102070008093B1008091B00081608093B000809126
:1020800091008260809391008091910081608093A3
:102090009100809190008160809390008091A100D8
:1020A00082608093A1008091A10081608093A10053
:1020B0008091A00081608093A000809121018260C6
:1020C0008093210180912101816080932101809181
:1020D000200181608093200180917A008460809348
:1020E0007A0080917A00826080937A0080917A00F1
:1020F000816080937A0080917A00806880937A0072
:102100001092C10010920C0B80910C0BE1E0F0E0FA
:10211000E81BF109EE0FFF1FE451F54F838D948DFD
:1021200090932B0B80932A0B8CEE9AE090934E02A7
:1021300080934D0280910E0B0E94A80320910E0BFC
:1021400030E0F901EC51FA4F8491F901EC5BF94F61
:1021500094912C55394FF9012491222309F432C06E
:10216000882309F181508231F0F4E82FF0E08827CC
:10217000E454FF4E8F4F01C182118611CE107A11A7
:102180007E11D31089118F11931199119D11A111F5
:10219000A711AB11D310AF11B511B9118091800007
:1021A0008F7780938000E22FF0E0EE0FFF1FE6575D
:1021B000F94FA591B4918FB7F894EC9190959E2327
:1021C0009C938FBF80910F0B0E94A803E0911C0B82
:1021D000F0911D0B90818091160B8095892380834F
:1021E0008091100B0E94A803E0911E0BF0911F0B31
:1021F00080819091170B892B80838091110B0E9415
:10220000A803E091200BF091210B90818091180B95
:102210008095892380838091120B0E94A803E0910E
:10222000220BF091230B90818091190B80958923CB
:1022300080838091130B0E94A803E091240BF091FE
:10224000250B908180911A0B809589238083809142
:102250000B0B893070F08091140B0E94A803E09161
:10226000260BF091270B908180911B0B8095892381
:1022700080838CEF81B912B882E08093800089E17D
:102280008093810084E690E090938700809386009D
:1022900080916F00816080936F00789470E060E0BF
:1022A0008CEE9AE06ADA81E08093F4028FE4E82E03
:1022B00082E0F82E10E000E0D0E0C0E0F701EC0F83
:1022C000FD1F8081882339F02FEF3FEFAE01B80169
:1022D0008CEE9AE01ED92196C032D10579F70F5FB6
:1022E0001F4FF0E2EF0EF11C0034110529F70E9498
:1022F0009A04FDCF809180008F7D53CF8091800024
:10230000877F4FCF84B58F7784BD4DCF84B58F7DC8
:10231000FBCF8091B0008F778093B00044CF809145
:10232000B0008F7DF9CF809190008F7780939000DF
:102330003ACF809190008F7DF9CF80919000877F78
:10234000F5CF8091A0008F778093A0002CCF809153
:10235000A0008F7DF9CF8091A000877FF5CF80917D
:1023600020018F77809320011ECF809120018F7DE7
:10237000F9CF80912001877FF5CFEE0FFF1F881FD7
:102380008BBF0790F691E02D19940F931F93CF9375
:10239000DF938230910510F482E090E0E0912E0B03
:1023A000F0912F0B30E020E0B0E0A0E0309799F4FE
:1023B0002115310509F44AC0281B390B2430310599
:1023C000D8F58A819B816115710589F1FB019383A1
:1023D0008283FE0111C0408151810281138148171F
:1023E0005907E0F04817590799F4109761F01296D1
:1023F0000C93129713961C933296CF01DF91CF91D5
:102400001F910F91089500932E0B10932F0BF4CF73
:102410002115310551F04217530738F0A901DB01AE
:102420009A01BD01DF01F801C1CFEF01F9CF90930F
:102430002F0B80932E0BCDCFFE01E20FF31F819364
:1024400091932250310939832883D7CF20912C0BC7
:1024500030912D0B232B41F4209102023091030285
:1024600030932D0B20932C0B209100023091010210
:102470002115310541F42DB73EB74091040250912A
:102480000502241B350BE0912C0BF0912D0BE2176C
:10249000F307A0F42E1B3F0B2817390778F0AC0187
:1024A0004E5F5F4F2417350748F04E0F5F1F509364
:1024B0002D0B40932C0B819391939FCFF0E0E0E0A4
:1024C0009CCFCF93DF930097E9F0FC013297138202
:1024D0001282A0912E0BB0912F0BED0130E020E085
:1024E0001097A1F420813181820F931F20912C0B32
:1024F00030912D0B2817390709F061C0F0932D0B8F
:10250000E0932C0BDF91CF910895EA01CE17DF07FE
:10251000E8F54A815B819E0141155105B1F7E9015A
:10252000FB83EA8349915991C40FD51FEC17FD072E
:1025300061F4808191810296840F951FE90199834E
:102540008883828193819B838A83F0E0E0E0129606
:102550008D919C9113970097B9F52D913C9111970E
:10256000CD010296820F931F20912C0B30912D0BE1
:102570002817390739F6309751F510922F0B109222
:102580002E0BB0932D0BA0932C0BBCCFD383C28307
:1025900040815181840F951FC817D90761F44E5FA0
:1025A0005F4F88819981480F591F518340838A81E9
:1025B0009B81938382832115310509F0B0CFF0937D
:1025C0002F0BE0932E0B9ECFFD01DC01C0CF1382B9
:1025D0001282D7CF81E090E0F89407C0DC0101C0FF
:0E25E0006D9341505040E0F70895F894FFCFFE
:1025EE000000300B8000000000002604CA04C70360
:1025FE007204F803D603EA03000000003207CA048F
:10260E00BA0BB90B890AAD09D609AE09CA09BE09BA
:10261E00DD09AD09F804F70474093B09F608BD0B92
:04262E006108020835
:020000023000CC
:10E000000D9489F10D94B2F10D94B2F10D94B2F129
:10E010000D94B2F10D94B2F10D94B2F10D94B2F1F0
:10E020000D94B2F10D94B2F10D94B2F10D94B2F1E0
:10E030000D94B2F10D94B2F10D94B2F10D94B2F1D0
:10E040000D94B2F10D94B2F10D94B2F10D94B2F1C0
:10E050000D94B2F10D94B2F10D94B2F10D94B2F1B0
:10E060000D94B2F10D94B2F10D94B2F10D94B2F1A0
:10E070000D94B2F10D94B2F10D94B2F10D94B2F190
:10E080000D94B2F10D94B2F10D94B2F10D94B2F180
:10E090000D94B2F10D94B2F10D94B2F10D94B2F170
:10E0A0000D94B2F10D94B2F10D94B2F10D94B2F160
:10E0B0000D94B2F10D94B2F10D94B2F10D94B2F150
:10E0C0000D94B2F10D94B2F10D94B2F10D94B2F140
:10E0D0000D94B2F10D94B2F10D94B2F10D94B2F130
:10E0E0000D94B2F141546D656761323536300041AF
:10E0F000726475696E6F206578706C6F72657220DE
:10E1000073746B3530305632206279204D4C530099
:10E11000426F6F746C6F616465723E004875683F52
:10E1200000436F6D70696C6564206F6E203D200048
:10E130004350552054797065202020203D20005FF9
:10E140005F4156525F415243485F5F3D2000415658
:10E1500052204C696243205665723D20004743437C
:10E160002056657273696F6E203D20004350552024
:10E1700049442020202020203D20004C6F7720663D
:10E18000757365202020203D20004869676820665F
:10E190007573652020203D200045787420667573D6
:10E1A00065202020203D20004C6F636B2066757336
:10E1B000652020203D20004D617220203720323024
:10E1C000313300312E362E3800342E332E350056A2
:10E1D00023202020414444522020206F7020636F70
:10E1E00064652020202020696E73747275637469E1
:10E1F0006F6E2061646472202020496E74657272B3
:10E20000757074006E6F20766563746F7200726A49
:10E210006D702020006A6D70200057686174207056
:10E220006F72743A00506F7274206E6F7420737541
:10E2300070706F72746564004D7573742062652030
:10E2400061206C6574746572002000577269747483
:10E25000696E672045450052656164696E672045B7
:10E26000450045452065727220636E743D00504F35
:10E27000525400303D5A65726F2061646472003FF1
:10E280003D43505520737461747300403D454550C3
:10E29000524F4D207465737400423D426C696E6B41
:10E2A000204C454400453D44756D70204545505215
:10E2B0004F4D00463D44756D7020464C415348001B
:10E2C000483D48656C70004C3D4C69737420492F83
:10E2D0004F20506F72747300513D51756974005234
:10E2E0003D44756D702052414D00563D73686F7707
:10E2F00020696E7465727275707420566563746FF0
:10E30000727300593D506F727420626C696E6B00BD
:10E310002A0011241FBECFEFD1E2DEBFCDBF01E046
:10E320000CBF12E0A0E0B2E0EEE1FDEF03E00BBFB6
:10E3300002C007900D92A030B107D9F712E0A0E01B
:10E34000B2E001C01D92AE30B107E1F70F9460F367
:10E350000D948DFE01E20EBF0FEF0DBF11241FBE05
:10E360000D9460F30D9400F020E030E040ED57E0B4
:10E3700005C0FA013197F1F72F5F3F4F2817390792
:10E38000C0F308959C01260F311DC901A0E0B0E043
:10E390002F5F3F4FABBFFC018791882361F08093D3
:10E3A000C6008091C00086FFFCCF8091C0008064D1
:10E3B0008093C000EACF08958DE08093C6008091DD
:10E3C000C00086FFFCCF8091C00080648093C000B5
:10E3D0008AE08093C6008091C00086FFFCCF8091C8
:10E3E000C00080648093C00008950F94C2F10F9420
:10E3F000DCF10895FC019081992359F09093C600B7
:10E400008091C00086FFFCCF8091C0008064809323
:10E41000C0003196992379F70895282F982F929567
:10E420009F70892F805D8A3308F0895F8093C600D2
:10E430008091C00086FFFCCF8091C00080648093F3
:10E44000C000822F8F70982F905D9A3308F0995FEB
:10E450009093C6008091C00086FFFCCF8091C000E1
:10E4600080648093C00008959C01FB01853691056E
:10E470001CF46330710594F0C90164E670E00F94F8
:10E480002EFE605D7F4F6093C6008091C00086FFC6
:10E49000FCCF8091C00080648093C0002B30310598
:10E4A00014F43297B4F0C90164E670E00F942EFEC4
:10E4B0006AE070E00F942EFE605D7F4F6093C600AF
:10E4C0008091C00086FFFCCF8091C0008064809363
:10E4D000C000C9016AE070E00F942EFEC0968093E0
:10E4E000C6008091C00086FFFCCF8091C000806490
:10E4F0008093C00008951F93182F8EE692EE60E07F
:10E500000F94C2F11093C6008091C00086FFFCCF2B
:10E510008091C00080648093C0000F94DCF11F9153
:10E5200008952F923F924F925F926F927F928F92B7
:10E530009F92AF92BF92CF92DF92EF92FF920F9392
:10E540001F93DF93CF93CDB7DEB762970FB6F894E2
:10E55000DEBF0FBECDBF382E622ECA01DB015C01CB
:10E560006D01772420E2222E2E010894411C511CBB
:10E570008BC081E0A81680E0B80681E0C80680E084
:10E58000D80628F0C601AA27BB270F940DF2BB2797
:10E59000AD2D9C2D8B2D0F940DF28A2D0F940DF225
:10E5A0002092C6008091C00086FFFCCF8091C00001
:10E5B00080648093C0009DE29093C6008091C0006B
:10E5C00086FFFCCF8091C00080648093C0002092C1
:10E5D000C6008091C00086FFFCCF8091C00080649F
:10E5E0008093C00019828601750188249924A1E0D6
:10E5F0003A1651F03A1620F0B2E03B1661F409C029
:10E600000BBFF701779007C0C7010F9477FE782EF4
:10E6100002C0F7017080872D0F940DF22092C60082
:10E620008091C00086FFFCCF8091C0008064809301
:10E63000C000872D8052F401EF70F0708F3520F408
:10E64000E40DF51D708204C0E40DF51D8EE280839B
:10E650000894E11CF11C011D111D0894811C911CE2
:10E6600090E18916910409F0C2CF80E190E0A0E02A
:10E67000B0E0A80EB91ECA1EDB1E198AC2010F9493
:10E68000FAF10F94DCF16A94662009F072CF629679
:10E690000FB6F894DEBF0FBECDBFCF91DF911F91B3
:10E6A0000F91FF90EF90DF90CF90BF90AF909F9031
:10E6B0008F907F906F905F904F903F902F90089534
:10E6C0002F923F924F925F926F927F928F929F9282
:10E6D000AF92BF92CF92DF92EF92FF920F931F9370
:10E6E000DF93CF93CDB7DEB7CD53D1400FB6F894BB
:10E6F000DEBF0FBECDBF01E20EBF0FEF0DBF94B75F
:10E70000F894A89514BE80916000886180936000A1
:10E7100010926000789493FF05C0E0910002F091A0
:10E7200001021995279A2F9A8091C00082608093E8
:10E73000C00080E18093C40088E18093C1000000A4
:10E74000EE24FF24870144E0A42EB12CCC24DD2448
:10E7500024C0C5010197F1F70894E11CF11C011DCB
:10E76000111D21E2E2162EE4F20620E0020720E06D
:10E77000120718F031E0C32ED12CC801B70127ECE5
:10E780003BE140E050E00F9441FE611571058105C9
:10E79000910519F485B1805885B98091C00087FD35
:10E7A00003C0C114D104A9F2A6014F5F5F4FC25E3E
:10E7B000DE4F59834883CE51D140C25EDE4F8881FF
:10E7C0009981CE51D140019711F00D9410FEC05D9A
:10E7D000DE4F19821882C053D14060E0C15DDE4F28
:10E7E0001882CF52D14088249924C35DDE4F19820C
:10E7F0001882CD52D140C05EDE4F188219821A8233
:10E800001B82C052D140CE5CDE4F188219821A8220
:10E810001B82C253D140EE24FF2487010BBFF701B6
:10E8200007911691C45CDE4F19830883CC53D14005
:10E830000D940BFEC25EDE4F28813981CE51D1404E
:10E840002130310509F52091C600C25EDE4F1982E4
:10E850001882CE51D14022C02F5F3F4F4F4F5F4FA4
:10E86000213082E138078AE7480780E0580780F0C6
:10E87000C45CDE4FE881F981CC53D140EF5FFF4F9C
:10E8800019F0EE27FF27099420E030E040E050E047
:10E890008091C00087FFE0CF2091C600C35DDE4FAE
:10E8A00048815981CD52D1404F5F5F4FC35DDE4FEC
:10E8B00059834883CD52D140213209F063C64A3092
:10E8C000510508F05FC60894811C911C53E0851621
:10E8D000910409F059C600E010E018C081E280936D
:10E8E000C6008091C00086FFFCCF8091C00080648C
:10E8F0008093C0002F5F3F4F2931310579F70F9486
:10E90000DCF10F5F1F4F0530110519F020E030E0FA
:10E91000E5CF10920A0210920B0210920C02109294
:10E920000D02109206021092070210920802109235
:10E930000902109202021092030210920402109235
:10E9400005028FEE90EE60E00F94F5F180E191EE1C
:10E9500060E00F94C2F18091C00087FFFCCF9091DE
:10E96000C600903608F09F759032B8F09093C600BC
:10E970008091C00086FFFCCF8091C00080648093AE
:10E98000C000A0E2A093C6008091C00086FFFCCF2B
:10E990008091C00080648093C000983409F4D7C18E
:10E9A0009934B8F4923409F459C1933458F490333B
:10E9B00019F1903308F4E3C59F33A1F1903409F0C5
:10E9C000DEC5BDC0953409F470C1963409F0D7C5D1
:10E9D00098C1923509F42BC2933538F49C3409F46C
:10E9E000F5C1913509F0CBC518C2963509F445C279
:10E9F000993509F0C4C567C483E792EE62E00F94CD
:10EA0000F5F110920602109207021092080210927D
:10EA1000090210920A0210920B0210920C0210923C
:10EA20000D0213C18FE792EE62E00F94F5F18FEEC5
:10EA300090EE60E00F94F5F181E291EE60E00F94CA
:10EA4000C2F187EB91EE60E00F94F5F180E391EE77
:10EA500060E00F94C2F184EE90EE60E00F94F5F167
:10EA60008FE391EE60E00F94C2F186E090E061E008
:10EA700070E00F9434F20F94DCF18DE591EE60E0DC
:10EA80000F94C2F189EC91EE60E00F94F5F18EE401
:10EA900091EE60E00F94C2F183EC91EE60E00F9490
:10EAA000F5F18CE691EE60E00F94C2F18EE10F94E7
:10EAB0000DF288E90F940DF281E00F940DF20F949E
:10EAC000DCF18BE791EE60E00F94C2F119E0E0E039
:10EAD000F0E010935700E4918E2F0F940DF20F94F5
:10EAE000DCF18AE891EE60E00F94C2F1E3E0F0E03F
:10EAF00010935700E4918E2F0F940DF20F94DCF1D8
:10EB000089E991EE60E00F94C2F1E2E0F0E0109349
:10EB10005700E4918E2F0F940DF20F94DCF188EAE8
:10EB200091EE60E00F94C2F1E1E0F0E01093570045
:10EB30001491812F0F940DF20F94DCF107CF8BE825
:10EB400092EE62E00F94F5F18BE492EE60E00F94A8
:10EB5000F5F10F94DCF100E010E019C0C8016F2D51
:10EB60000F947FFEFF2031F489E492EE60E00F9471
:10EB7000C2F10BC0F092C6008091C00086FFFCCFAE
:10EB80008091C00080648093C0000F5F1F4FC80158
:10EB900081519F41A0E0B0E0ABBFFC01F790BAE229
:10EBA000FB1621F0E2E000301E07C1F60F94DCF105
:10EBB0000F94DCF187E592EE60E00F94F5F10F948D
:10EBC000DCF1CC24DD2400E010E01EC0C8010F946D
:10EBD00077FEF82E882331F489E492EE60E00F94FA
:10EBE000C2F10BC08093C6008091C00086FFFCCFAD
:10EBF0008091C00080648093C000FE1419F00894D6
:10EC0000C11CD11C0F5F1F4FC80181519F41A0E063
:10EC1000B0E0ABBFFC01E790FAE2EF1621F022E092
:10EC20000030120799F60F94DCF10F94DCF182E6C4
:10EC300092EE60E00F94C2F1C60161E070E00F94C3
:10EC400034F20F94DCF10F94DCF110920202109276
:10EC50000302109204021092050278CE89E992EE26
:10EC600062E00F94F5F1279A2F9A16C02F9880E052
:10EC700090E0E0EDF7E03197F1F7019684369105E9
:10EC8000C1F72F9A80E090E0E0EDF7E03197F1F7DF
:10EC9000019684369105C1F78091C00087FFE6CFC9
:10ECA0008091C00087FFFCCF64C485EA92EE62E0E9
:10ECB0000F94F5F140910202509103026091040219
:10ECC0007091050281E020E10F9491F2809102029F
:10ECD00090910302A0910402B091050280509F4FD1
:10ECE000AF4FBF4F8093020290930302A0930402A0
:10ECF000B093050280509041A040B04008F426CE69
:10ED0000A4CF83EB92EE62E00F94F5F140910602FE
:10ED100050910702609108027091090280E020E1A1
:10ED20000F9491F28091060290910702A09108023F
:10ED3000B091090280509F4FAF4FBF4F80930602A2
:10ED400090930702A0930802B0930902FFCD80ECD4
:10ED500092EE62E00F94F5F183E792EE60E00F949B
:10ED6000F5F18FE792EE60E00F94F5F18BE892EE0B
:10ED700060E00F94F5F189E992EE60E00F94F5F10F
:10ED800085EA92EE60E00F94F5F183EB92EE60E09D
:10ED90000F94F5F180EC92EE60E00F94F5F187ECC2
:10EDA00092EE60E00F94F5F188ED92EE60E00F9442
:10EDB000F5F18FED92EE60E00F94F5F18AEE92EEB0
:10EDC00060E00F94F5F183E093EEBDCD87EC92EE19
:10EDD00062E00F94F5F181E40F947BF282E40F94EA
:10EDE0007BF283E40F947BF284E40F947BF285E45E
:10EDF0000F947BF286E40F947BF287E40F947BF20E
:10EE000088E40F947BF28AE40F947BF28BE40F94F6
:10EE10007BF28CE40F947BF299CD88ED92EE62E068
:10EE20000F94F5F1772473948824992409C48FED05
:10EE300092EE62E00F94F5F140910A0250910B02BC
:10EE400060910C0270910D0282E020E10F9491F22A
:10EE500080910A0290910B02A0910C02B0910D02D8
:10EE600080509F4FAF4FBF4F80930A0290930B0289
:10EE7000A0930C02B0930D0269CD8AEE92EE62E08F
:10EE80000F94F5F184EE90EE60E00F94F5F18FECC5
:10EE900091EE60E00F94F5F1662477244301CC5D98
:10EEA000DE4F19821882C452D140D401C301B695F5
:10EEB000A79597958795CA5DDE4F88839983AA8326
:10EEC000BB83C652D140CC5DDE4FA881B981C4520C
:10EED000D1401196CC5DDE4FB983A883C452D14096
:10EEE000CD0162E070E00F9434F2B0E2B093C6005E
:10EEF0008091C00086FFFCCF8091C0008064809329
:10EF0000C000EDE2E093C6008091C00086FFFCCF18
:10EF10008091C00080648093C000F0E2F093C6004E
:10EF20008091C00086FFFCCF8091C00080648093F8
:10EF3000C000CA5DDE4FE880F9800A811B81C6529D
:10EF4000D140BB27A12F902F8F2D0F940DF2CA5DBA
:10EF5000DE4F8881C652D1400F940DF2B0E2FB2EF5
:10EF6000F092C6008091C00086FFFCCF8091C00067
:10EF700080648093C0000DE30093C6008091C000C0
:10EF800086FFFCCF8091C00080648093C00010E2B7
:10EF90001093C6008091C00086FFFCCF8091C00016
:10EFA00080648093C0008BBEF3012791C65DDE4F65
:10EFB0002883CA52D140A22EBB24CC24DD2408943D
:10EFC000611C711C811C911C8BBEF3018791282E42
:10EFD0003324442455240894611C711C811C911C09
:10EFE0008BBEF3013791C55DDE4F3883CB52D140E4
:10EFF0000894611C711C811C911C8BBEF30147910C
:10F00000C45DDE4F4883CC52D140ADEFEA2EAFEF66
:10F01000FA2EAFEF0A2FAFEF1A2F6E0C7F1C801E57
:10F02000911E142D032DF22CEE24EA0CFB1C0C1D5A
:10F030001D1D0F940DF220E22093C6008091C000A8
:10F0400086FFFCCF8091C00080648093C000C65DC5
:10F05000DE4F8881CA52D1400F940DF230E23093D6
:10F06000C6008091C00086FFFCCF8091C000806404
:10F070008093C000C45DDE4F8881CC52D1400F9494
:10F080000DF240E24093C6008091C00086FFFCCFA5
:10F090008091C00080648093C000C55DDE4F888190
:10F0A000CB52D1400F940DF250E25093C6008091A4
:10F0B000C00086FFFCCF8091C00080648093C000B8
:10F0C0008FEFE8168FEFF80680E0080780E018075A
:10F0D00031F484E092EE60E00F94C2F1DFC0D80119
:10F0E000C7018070907CA070B0708050904CA040A0
:10F0F000B040D1F52FEF3FE340E050E0E222F322B1
:10F1000004231523CA5DDE4FA880B980CA80DB8046
:10F11000C652D140AE0CBF1CC01ED11EAA0CBB1CD7
:10F12000CC1CDD1C8EE092EE60E00F94C2F1BB2798
:10F13000A12F902F8F2D0F940DF28E2D0F940DF285
:10F1400030E23093C6008091C00086FFFCCF8091F2
:10F15000C00080648093C0004EE34093C60080915D
:10F16000C00086FFFCCF87C08EE09EEFA0E0B0E03D
:10F17000E822F9220A231B239CE0E91694E9F90608
:10F1800090E0090790E0190709F088C0C45DDE4FE0
:10F19000A881CC52D140EA2EFF2400E010E0102FCD
:10F1A0000F2DFE2CEE24C55DDE4FB881CB52D14031
:10F1B000EB0EF11C011D111DD601C501817090706F
:10F1C000A070B070DC0199278827E80EF91E0A1F8D
:10F1D0001B1F20EF30E040E050E0A222B322C42207
:10F1E000D52241E1AA0CBB1CCC1CDD1C4A95D1F7F1
:10F1F000EA0CFB1C0C1D1D1D81E090E0A0E0B0E0BE
:10F20000282239224A225B2235E1220C331C441C7D
:10F21000551C3A95D1F7E20CF31C041D151D57013E
:10F220006801AA0CBB1CCC1CDD1C85E192EE60E0E1
:10F230000F94C2F1C801AA27BB270F940DF2BB2778
:10F24000A12F902F8F2D0F940DF28E2D0F940DF274
:10F2500090E29093C6008091C00086FFFCCF809121
:10F26000C00080648093C000AEE3A093C60080918C
:10F27000C00086FFFCCF8091C00080648093C000F6
:10F28000C601AA27BB270F940DF2BB27AD2D9C2DDD
:10F290008B2D0F940DF28A2D0F940DF20F94DCF14B
:10F2A000CC5DDE4FE881F981C452D140F99709F471
:10F2B0004DCBF4E0EF2EF12C012D112D6E0C7F1CA7
:10F2C000801E911EF2CD83E093EE62E00F94F5F183
:10F2D0008AE192EE60E00F94C2F18091C00087FF56
:10F2E000FCCF1091C6001F751093C6008091C0001E
:10F2F00086FFFCCF8091C00080648093C0000F9493
:10F30000DCF1812F81548A3108F036C1163409F4BA
:10F3100095C0173490F4133409F44EC0143430F40B
:10F320001134F1F0123409F01DC130C0143409F465
:10F3300059C0153409F016C16BC01A3409F4C4C0A1
:10F340001B3438F4173409F48FC0183409F00AC19B
:10F35000A1C01B3409F4D2C01C3409F003C1E8C0B9
:10F360008FEF81B90DC082B1809582B980E090E0C5
:10F37000E0EDF7E03197F1F70196883C9105C1F790
:10F380008091C00087FFEFCF12B8EFC08FEF84B934
:10F390000DC085B1809585B980E090E0E0EDF7E0A3
:10F3A0003197F1F70196883C9105C1F78091C00033
:10F3B00087FFEFCF15B8D9C08FEF87B90DC088B1DF
:10F3C000809588B980E090E0E0EDF7E03197F1F7C3
:10F3D0000196883C9105C1F78091C00087FFEFCF6F
:10F3E00018B8C3C08FEF8AB90DC08BB180958BB9A7
:10F3F00080E090E0E0EDF7E03197F1F70196883C8E
:10F400009105C1F78091C00087FFEFCF1BB8ADC059
:10F410008FEF8DB90DC08EB180958EB980E090E0F0
:10F42000E0EDF7E03197F1F70196883C9105C1F7DF
:10F430008091C00087FFEFCF1EB897C08FEF80BBD1
:10F440000DC081B3809581BB80E090E0E0EDF7E0F6
:10F450003197F1F70196883C9105C1F78091C00082
:10F4600087FFEFCF11BA81C08FEF83BB0DC084B38C
:10F47000809584BB80E090E0E0EDF7E03197F1F714
:10F480000196883C9105C1F78091C00087FFEFCFBE
:10F4900014BA6BC08FEF809301010FC080910201FD
:10F4A00080958093020180E090E0E0EDF7E03197F5
:10F4B000F1F70196883C9105C1F78091C00087FF64
:10F4C000EDCF1092020151C08FEF809304010FC065
:10F4D0008091050180958093050180E090E0E0ED4A
:10F4E000F7E03197F1F70196883C9105C1F78091DB
:10F4F000C00087FFEDCF1092050137C08FEF8093DA
:10F5000007010FC08091080180958093080180E079
:10F5100090E0E0EDF7E03197F1F70196883C910536
:10F52000C1F78091C00087FFEDCF109208011DC088
:10F530008FEF80930A010FC080910B01809580931B
:10F540000B0180E090E0E0EDF7E03197F1F70196F4
:10F55000883C9105C1F78091C00087FFEDCF1092E4
:10F560000B0103C085E292EEEEC98091C00087FFD7
:10F57000FCCF8091C600EAC988E392EEE4C98CE131
:10F5800091EEE1C988249924933011F1943028F444
:10F59000913089F09230B8F408C0953061F195301F
:10F5A000F0F0963009F048C043C02B3109F042C951
:10F5B00091E06BE13FC96227C15DDE4F2883CF52E6
:10F5C000D14092E037C9B22FA0E0622793E032C960
:10F5D000822F90E0A82BB92B622794E02BC92E3004
:10F5E00009F039C3622795E0C05DDE4F19821882A9
:10F5F000C053D1401FC9E1E0F0E0EC0FFD1FC05D3A
:10F60000DE4F08811981C053D140E00FF11F2083E4
:10F610000F5F1F4FC05DDE4F19830883C053D14079
:10F6200062270A171B0709F005C9D80196E002C92D
:10F63000261709F010C303C0973009F0FBC87724E0
:10F640009981933109F412C19431C8F4963009F4C8
:10F65000D8C0973050F4923009F406C1933009F4C1
:10F660006DC0913009F059C253C0913109F477C08F
:10F67000923108F0BBC0903109F04FC2F5C098310B
:10F6800009F487C0993150F4953109F4EFC09531F0
:10F6900008F4C6C1963109F040C2C2C19A3109F4DA
:10F6A0006CC09A3108F491C09B3109F45BC09D3164
:10F6B00009F033C29D81903359F48F81882311F46E
:10F6C0009EE11CC0813011F091E018C098E916C08D
:10F6D000892F807591F0903539F4E0E0F0E089E011
:10F6E0008093570094910AC0983539F4E3E0F0E034
:10F6F00089E080935700949101C090E01A821B82A8
:10F700008D818C831D829E831F8227E030E009C299
:10F710001A8288E08B8381E48C8386E58D8382E581
:10F720008E8389E48F8383E5888780E589878FE5E9
:10F730008A8782E38B872BE030E0F3C18A818139AD
:10F7400041F0823941F0803911F48FE005C080E04A
:10F7500003C082E001C08AE01A828B8344C0772410
:10F76000739482C08D81882311F48EE12CC0813086
:10F7700011F081E028C088E926C01A82E1E0F0E0BB
:10F7800089E08093570084918B831C8224E030E0D1
:10F79000C8C18B81803589F48C81883039F4E2E0EE
:10F7A000F0E089E08093570084910DC0E0E0F0E044
:10F7B00089E080935700849106C0E3E0F0E089E09F
:10F7C0008093570084911A82DFCF8D81836C99E0FA
:10F7D000E1E0F0E0082E90935700E89507B600FCB2
:10F7E000FDCF1A821B8223E030E09BC180EC8A832C
:10F7F000CE5CDE4F188219821A821B82C253D1401E
:10F800008EC18A8190E0A0E0B0E0582F44273327D2
:10F8100022278B8190E0A0E0B0E0DC0199278827C7
:10F82000282B392B4A2B5B2B8D8190E0A0E0B0E098
:10F83000282B392B4A2B5B2B8C8190E0A0E0B0E089
:10F84000BA2FA92F982F8827282B392B4A2B5B2BCF
:10F85000220F331F441F551FC05EDE4F288339839C
:10F860004A835B83C052D1401A8259C13A81C95C34
:10F87000DE4F3883C753D140CA5CDE4F1882C6536F
:10F88000D1408B81C82EDD24CA5CDE4F488159816E
:10F89000C653D140C42AD52A933109F082C0CE5C28
:10F8A000DE4F88819981AA81BB81C253D1408050AB
:10F8B000904CA340B04030F583E0CE5CDE4FE88052
:10F8C000F9800A811B81C253D140F70100935B008C
:10F8D00080935700E89507B600FCFDCFCE5CDE4F65
:10F8E000088119812A813B81C253D14000501F4FAA
:10F8F0002F4F3F4FCE5CDE4F088319832A833B8313
:10F90000C253D140C05EDE4F488159816A817B81FC
:10F91000C052D140DE011B9631E08C9111962C91A2
:10F9200011971296C75CDE4F2883C953D140C85C3B
:10F93000DE4F1882C853D14090E0C85CDE4FE881AA
:10F94000F981C853D1408E2B9F2B0C01FA01609393
:10F950005B0030935700E89511244E5F5F4F6F4F67
:10F960007F4F0EEFE02E0FEFF02ECE0CDF1CC114F8
:10F97000D10499F685E0C05EDE4F088119812A81A5
:10F980003B81C052D140F80120935B008093570027
:10F99000E89507B600FCFDCF81E180935700E8951C
:10F9A00035C0C05EDE4F88819981AA81BB81C0527B
:10F9B000D140B695A795979587957C018601ABE0D8
:10F9C000AA2EB12CAC0EBD1E0BC0D5016D915D01F0
:10F9D000C7010F947FFE0894E11CF11C01501040F8
:10F9E0000115110591F7A60160E070E0440F551F65
:10F9F000661F771FC05EDE4FE880F9800A811B8199
:10FA0000C052D1404E0D5F1D601F711F1A82C05E33
:10FA1000DE4F488359836A837B83C052D1407FC0C5
:10FA2000FA80C55CDE4FF882CB53D140C65CDE4F16
:10FA30001882CA53D1408B81C82EDD24C65CDE4FAC
:10FA400008811981CA53D140C02AD12A1A828981DA
:10FA5000BE016D5F7F4F843121F59601C05EDE4FA0
:10FA6000E880F9800A811B81C052D1400BBFF701A9
:10FA700087919691DB018C9311969C936E5F7F4FDB
:10FA8000D801C7010296A11DB11DC05EDE4F88835B
:10FA90009983AA83BB83C052D14022503040F1F6F3
:10FAA00036C0C05EDE4F288139814A815B81C052F9
:10FAB000D1400894C108D108760100E010E0089414
:10FAC000C11CD11C0894E11CF11C011D111DE20E8A
:10FAD000F31E041F151F21BDBB27A52F942F832FB5
:10FAE00082BD2F5F3F4F4F4F5F4FF89A80B5DB01CC
:10FAF0008D93BD012E153F054007510761F7C05E8C
:10FB0000DE4F288339834A835B83C052D1409601FC
:10FB10002D5F3F4FFB01108204C080EC8A8322E0FE
:10FB200030E08BE18093C6008091C00086FFFCCF5F
:10FB30008091C00080648093C000C15DDE4FF88179
:10FB4000CF52D140F093C6008091C00086FFFCCF19
:10FB50008091C00080648093C000432F3093C60022
:10FB60008091C00086FFFCCF8091C00080648093AC
:10FB7000C000922F2093C6008091C00086FFFCCF6A
:10FB80008091C00080648093C0008EE08093C600A6
:10FB90008091C00086FFFCCF8091C000806480937C
:10FBA000C00065E1C15DDE4FE880CF52D1406E25D7
:10FBB00069276427FE01319610C090819093C6009A
:10FBC0008091C00086FFFCCF31968091C000806498
:10FBD0008093C0006927215030402115310569F715
:10FBE0006093C6008091C00086FFFCCF8091C0006A
:10FBF00080648093C00085B1805885B9772081F4F6
:10FC0000C15DDE4F0881CF52D1400F5FC15DDE4F35
:10FC10000883CF52D14090E0A0E0B0E00D941AF4F8
:10FC200027982F9880E090E020ED37E0F901319798
:10FC3000F1F7019684369105C9F700008091C00064
:10FC40008D7F8093C00081E180935700E895EE2777
:10FC5000FF270994FFCF90E00D941AF497FB092E2B
:10FC600007260AD077FD04D02ED006D000201AF443
:10FC7000709561957F4F0895F6F7909581959F4F08
:10FC80000895A1E21A2EAA1BBB1BFD010DC0AA1FDD
:10FC9000BB1FEE1FFF1FA217B307E407F50720F0F5
:10FCA000A21BB30BE40BF50B661F771F881F991F70
:10FCB0001A9469F760957095809590959B01AC01B9
:10FCC000BD01CF010895AA1BBB1B51E107C0AA1FAC
:10FCD000BB1FA617B70710F0A61BB70B881F991FED
:10FCE0005A95A9F780959095BC01CD010895F99991
:10FCF000FECF92BD81BDF89A992780B50895262F31
:10FD0000F999FECF1FBA92BD81BD20BD0FB6F89400
:0EFD1000FA9AF99A0FBE01960895F894FFCF63
:040000033000E000E9
:00000001FF
